:100000000C9463000C948B000C948B000C948B006C
:100010000C948B000C948B000C948B000C948B0034
:100020000C948B000C948B000C948B000C948B0024
:100030000C948B000C948B000C948B000C948B0014
:100040000C942F040C948B000C94F9060C942B0741
:100050000C948B000C948B000C948B000C948B00F4
:100060000C948B000C948B0000000008000201002F
:100070000003040700000000000000000102040863
:100080001020408001020408102001020408102002
:10009000040404040404040402020202020203032E
:1000A00003030303000000002300260029000000D2
:1000B0000000250028002B0000000000240027007D
:1000C0002A000A015B0711241FBECFEFD8E0DEBF74
:1000D000CDBF11E0A0E0B1E0E0E3F3E102C00590A4
:1000E0000D92A83AB107D9F722E0A8EAB1E001C021
:1000F0001D92A935B207E1F710E0C6ECD0E004C0CC
:100100002297FE010E948D09C23CD107C9F70E94C7
:10011000C2080C9496090C94000062E071E08CEB2C
:1001200091E00E94E90726E040E855E260E070E0D7
:100130008CEB91E00C9497060F931F93CF93DF9372
:1001400000D0CDB7DEB71A821982E091A801F091F4
:10015000A9010480F581E02D20E030E0AE014F5F81
:100160005F4FBE016E5F7F4F88EA91E009958C0179
:10017000009709F160E271E08CEB91E00E94DC07EE
:10018000B80177274AE050E08CEB91E00E94940898
:1001900068E371E08CEB91E00E94DC074AE050E0FC
:1001A000612F70E08CEB91E00E94A90868EE73E08B
:1001B00080E090E026C06AE371E08CEB91E00E9461
:1001C000DC076A8170E04AE050E08CEB91E00E942D
:1001D000940866E471E08CEB91E00E94DC07698191
:1001E00070E04AE050E08CEB91E00E9494086CE4EF
:1001F00071E08CEB91E00E94E9076CED75E080E026
:1002000090E00E949C040F900F90DF91CF911F917E
:100210000F910895609100017091010188EA91E0C9
:100220000C942304DC0117967C936E931697FB01C4
:10023000E458FF4FE4911996EC931997FB01E057AE
:10024000FF4F64911A966C930895262F2D7F29F401
:10025000FC01608780E090E0089588E190E00895D7
:10026000CF92DF92EF92FF920F931F93CF93DF9382
:10027000EC017A016901E881F9810190F081E02DBA
:100280000995E881F9810480F581E02D9801A601A6
:10029000B701CE01DF91CF911F910F91FF90EF90A9
:1002A000DF90CF900994FC01818590E00895FC01D6
:1002B000828590E0089527E030E080E0FB014191E5
:1002C000BF01022E01C0440F0A94EAF7840F2150A7
:1002D0003109A0F708958F929F92AF92BF92CF926B
:1002E000DF92EF92FF920F931F93CF93DF93EC0176
:1002F0008B016A017901E881F9810288F389E02D97
:100300000995B82EE881F981B801685F7F4F0288AE
:10031000F389E02DCE010995A82EE881F981B80175
:10032000605F7F4F0288F389E02DCE010995982EFA
:10033000E881F981B801685E7F4F0288F389E02D7A
:10034000CE010995882EE881F981B801605E7F4F62
:100350000288F389E02DCE0109959A2D9B0D990D08
:10036000980D89130FC0682D70E07929F60171830B
:1003700060834A2D50E05B29F7015183408380E080
:1003800090E002C085E190E0DF91CF911F910F9145
:10039000FF90EF90DF90CF90BF90AF909F908F90A5
:1003A0000895CF92DF92EF92FF920F931F93CF9316
:1003B000DF93EC017A016901E881F9810190F08114
:1003C000E02D0995E881F9810084F185E02D9801FF
:1003D000A601B701CE01DF91CF911F910F91FF9040
:1003E000EF90DF90CF9009947F928F929F92AF927F
:1003F000BF92CF92DF92EF92FF920F931F93CF9312
:10040000DF93EC01162F4A0159010E9479046B0118
:100410007C01112311F0798401C0712C00E010E0FF
:1004200021E060E070E0CB01222381F197FD32C032
:100430002A813B814C815D81261737074807590780
:100440004CF10115110529F41814190444F4C401E0
:1004500004C01A141B041CF4C5010E94D6040E9497
:1004600079046C197D098E099F09EA85F0E0EE0F89
:10047000FF1FEC55FF4FA591B4913C912985322384
:1004800021E0371120E00F5F1F4FCECF462F372FCF
:10049000282F04C04FEF3FEF2FEF9FEF642F732FF4
:1004A000822FDF91CF911F910F91FF90EF90DF90FE
:1004B000CF90BF90AF909F908F907F900895EF92D4
:1004C000FF920F931F93CF93DF93EC017B0188E2A0
:1004D000FB0111928A95E9F761E08E810E94450542
:1004E00060E08E810E947E0564E170E080E090E033
:1004F0000E949C0461E08E810E947E0568858E8149
:100500000E94450589E190E00E94D604E881F981C6
:100510000088F189E02D26E030E04AE050E060E01C
:10052000CE0109956E3171058105910534F4B82F1E
:10053000A72F962F882780616FC0E881F9810088F6
:10054000F189E02D26E030E04AE050E061E0CE01A4
:100550000995623371058105910534F4B82FA72FF1
:10056000962F8827816158C000E010E0E881F9816A
:100570000088F189E02D26E030E04AE050E060E0BC
:10058000CE010995683171058105910534F4B82FC4
:10059000A72F962F882782613FC0E881F9810088C4
:1005A000F189E02D26E030E04AE050E061E0CE0144
:1005B00009956B3071058105910534F4B82FA72F8B
:1005C000962F8827836128C021E069327105810553
:1005D00091050CF420E0F70121937F010F5F1F4F7D
:1005E0000832110519F6E881F9810088F189E02DBA
:1005F00026E030E04AE050E060E0CE010995683145
:1006000071058105910534F4B82FA72F962F8827FF
:10061000846102C080E090E0DF91CF911F910F9143
:10062000FF90EF900895CF92DF92EF92FF920F9399
:100630001F93CF93DF93CDB7DEB728970FB6F8940B
:10064000DEBF0FBECDBF6B017A01DC0116964D9166
:100650005C9117974F3F5F4F81F11D821E821F8271
:10066000188619821A821B821C82DC01ED91FC9192
:100670000084F185E02DAE014F5F5F4FBE016B5FDF
:100680007F4F09958C010097B1F4C114D10441F05A
:100690006D817E818F8198850E94D208F6016083EA
:1006A000E114F10441F069817A818B819C810E947F
:1006B000D208D7016C93C80102C087E190E0289668
:1006C0000FB6F894DEBF0FBECDBFDF91CF911F9163
:1006D0000F91FF90EF90DF90CF9008958F929F92AF
:1006E000AF92BF92CF92DF92EF92FF920F931F9340
:1006F000CF93DF93CDB7DEB7AC970FB6F894DEBFDC
:100700000FBECDBF6C017B018A014901DC01169649
:100710008D919C911797019609F467C0FE0131965F
:100720005F0188E2DF011D928A95E9F7D601ED911C
:10073000FC910488F589E02DB501C6010995009763
:1007400009F055C01CA61BA61AA619A6D601ED9144
:10075000FC910688F789E02D9E01275D3F4FAE0191
:10076000455D5F4FB501C6010995009709F03FC08F
:100770008114910439F088E2F501D40101900D92C1
:100780008A95E1F7E114F10481F08CA5682F782FA8
:10079000770F770B882777FD8095982F0E940509A2
:1007A000F70160837183828393830115110589F0BA
:1007B0008AA5682F782F770F770B882777FD80958C
:1007C000982F0E940509D8016D937D938D939C937A
:1007D00013978BA59CA5892B31F489A59AA5892B04
:1007E00011F486E103C080E001C087E190E0AC969F
:1007F0000FB6F894DEBF0FBECDBFDF91CF911F9132
:100800000F91FF90EF90DF90CF90BF90AF909F90AF
:100810008F900895FC01CB0123E531E031832083E3
:1008200040E251EA67E070E042835383648375835A
:100830002FEF3FEF37832683108621872287BC0165
:10084000CF010C941201CF93DF93EC010E940A04B4
:100850008FE691E099838883DF91CF9108951F926D
:100860000F920FB60F9211242F933F938F939F9364
:10087000AF93BF938091B4019091B501A091B6015F
:10088000B091B7013091B30123E0230F2D3720F44D
:100890000196A11DB11D05C026E8230F0296A11DDA
:1008A000B11D2093B3018093B4019093B501A0933F
:1008B000B601B093B7018091B8019091B901A091B0
:1008C000BA01B091BB010196A11DB11D8093B80181
:1008D0009093B901A093BA01B093BB01BF91AF91BE
:1008E0009F918F913F912F910F900FBE0F901F906E
:1008F00018953FB7F8948091B8019091B901A091F3
:10090000BA01B091BB0126B5A89B05C02F3F19F0D5
:100910000196A11DB11D3FBF6627782F892F9A2F01
:10092000620F711D811D911D42E0660F771F881FA8
:10093000991F4A95D1F708958F929F92AF92BF92D7
:10094000CF92DF92EF92FF926B017C010E947904BB
:100950004B015C01C114D104E104F104F1F00E94E7
:10096000D1080E947904681979098A099B09683EAF
:1009700073408105910570F321E0C21AD108E108A6
:10098000F10888EE880E83E0981EA11CB11CC114EA
:10099000D104E104F10429F7DDCFFF90EF90DF905F
:1009A000CF90BF90AF909F908F9008958230910527
:1009B00038F0880F991F880F991F05970197F1F755
:1009C0000895789484B5826084BD84B5816084BDC7
:1009D00085B5826085BD85B5816085BDEEE6F0E0B8
:1009E000808181608083E1E8F0E010828081826014
:1009F0008083808181608083E0E8F0E08081816095
:100A00008083E1EBF0E0808184608083E0EBF0E0C4
:100A1000808181608083EAE7F0E080818460808368
:100A20008081826080838081816080838081806812
:100A300080831092C1000895833081F028F48130C2
:100A400099F08230A1F008958730A9F08830B9F08C
:100A50008430D1F4809180008F7D03C0809180002C
:100A60008F7780938000089584B58F7702C084B516
:100A70008F7D84BD08958091B0008F7703C08091F1
:100A8000B0008F7D8093B0000895CF93DF9390E006
:100A9000FC01E458FF4F2491FC01E057FF4F849183
:100AA000882349F190E0880F991FFC01E854FF4F1B
:100AB000A591B49182559F4FFC01C591D4919FB7E8
:100AC000611108C0F8948C91209582238C938881C1
:100AD00082230AC0623051F4F8948C91322F309501
:100AE00083238C938881822B888304C0F8948C9113
:100AF000822B8C939FBFDF91CF9108950F931F930B
:100B0000CF93DF931F92CDB7DEB7282F30E0F901E6
:100B1000E859FF4F8491F901E458FF4F1491F9010E
:100B2000E057FF4F04910023C9F0882321F0698327
:100B30000E941C056981E02FF0E0EE0FFF1FE255D7
:100B4000FF4FA591B4919FB7F8948C91611103C0A8
:100B50001095812301C0812B8C939FBF0F90DF9153
:100B6000CF911F910F910895FC01818D228D90E00E
:100B7000805C9F4F821B91098F7399270895FC0118
:100B8000918D828D981731F0828DE80FF11D858D42
:100B900090E008958FEF9FEF0895FC01918D828D75
:100BA000981761F0828DDF01A80FB11D5D968C91C1
:100BB000928D9F5F9F73928F90E008958FEF9FEFCC
:100BC000089581E597E0892B49F080E090E0892B3A
:100BD00029F00E94510781110C9400000895FC0136
:100BE000848DDF01A80FB11DA35ABF4F2C91848DB6
:100BF00090E001968F739927848FA689B7892C93EB
:100C0000A089B1898C9180648C93938D848D981385
:100C100006C00288F389E02D80818F7D808308954E
:100C2000CF93DF93EC01888D8823C9F0EA89FB8993
:100C3000808185FD05C0A889B9898C9186FD0FC08A
:100C40000FB607FCF5CF808185FFF2CFA889B9895F
:100C50008C9185FFEDCFCE010E94EF05E7CFDF91AC
:100C6000CF910895CF92DF92FF920F931F93CF936E
:100C7000DF931F92CDB7DEB76C0181E0D6015896A5
:100C80008C9358975B969C915B975C968C915C9744
:100C9000981307C05096ED91FC915197808185FD86
:100CA0002EC0F601038D10E00F5F1F4F0F73112749
:100CB000F02EF601848DF81211C00FB607FCF9CFA3
:100CC000D6015096ED91FC915197808185FFF1CF2F
:100CD000C60169830E94EF056981EBCF838DE80F20
:100CE000F11DE35AFF4F6083D6015B960C935B972F
:100CF0005296ED91FC915397808180620CC0D60191
:100D00005696ED91FC91579760835096ED91FC912A
:100D1000519780818064808381E090E00F90DF9123
:100D2000CF911F910F91FF90DF90CF900895BF92C8
:100D3000CF92DF92EF92FF92CF93DF93EC016A01A3
:100D40007B01B22EE889F98982E08083411581EE2A
:100D5000580761057105A1F060E079E08DE390E04E
:100D6000A70196010E9469092150310941095109E1
:100D70005695479537952795211580E1380798F0C6
:100D8000E889F989108260E874E88EE190E0A701B3
:100D900096010E946909215031094109510956956E
:100DA000479537952795EC85FD853083EE85FF8542
:100DB0002083188EEC89FD89B082EA89FB898081C5
:100DC00080618083EA89FB89808188608083EA89E9
:100DD000FB89808180688083EA89FB8980818F7D9F
:100DE0008083DF91CF91FF90EF90DF90CF90BF9005
:100DF00008951F920F920FB60F9211242F938F9385
:100E00009F93EF93FF93E091CC01F091CD0180810E
:100E1000E091D201F091D30182FD12C090818091C6
:100E2000D5018F5F8F732091D601821751F0E09129
:100E3000D501F0E0E454FE4F958F8093D50101C0B9
:100E40008081FF91EF919F918F912F910F900FBE15
:100E50000F901F9018951F920F920FB60F921124AA
:100E60002F933F934F935F936F937F938F939F93B2
:100E7000AF93BF93EF93FF938CEB91E00E94EF054C
:100E8000FF91EF91BF91AF919F918F917F916F9162
:100E90005F914F913F912F910F900FBE0F901F9038
:100EA00018958CEB91E00E94B40521E0892B09F4A0
:100EB00020E0822F08951092BF011092BE0188EEAB
:100EC00093E0A0E0B0E08093C0019093C101A093B3
:100ED000C201B093C3018BE891E09093BD01809370
:100EE000BC0185EC90E09093C9018093C80184EC2B
:100EF00090E09093CB018093CA0180EC90E09093B6
:100F0000CD018093CC0181EC90E09093CF01809350
:100F1000CE0182EC90E09093D1018093D00186ECD9
:100F200090E09093D3018093D2011092D50110925A
:100F3000D6011092D7011092D8010895CF92DF9276
:100F4000EF92FF920F931F93CF93DF937C016A017F
:100F5000EB0100E010E00C151D0571F06991D7015F
:100F6000ED91FC910190F081E02DC7010995892B4D
:100F700019F00F5F1F4FEFCFC801DF91CF911F9185
:100F80000F91FF90EF90DF90CF900895611571055C
:100F900081F0DB010D900020E9F7AD0141505109CE
:100FA000461B570BDC01ED91FC910280F381E02D93
:100FB000099480E090E008950C94C607DC01ED915F
:100FC000FC910190F081E02D099467E971E00C94A7
:100FD000C6070F931F93CF93DF93EC010E94C607C0
:100FE0008C01CE010E94E507800F911FDF91CF9108
:100FF0001F910F9108958F929F92AF92BF92DF92AF
:10100000EF92FF920F931F93CF93DF93CDB7DEB78D
:10101000A1970FB6F894DEBF0FBECDBF7C01F42FB1
:10102000D52ECB0119A2223008F42AE08E010F5DE3
:101030001F4F822E912CA12CB12C6F2F7D2DA5013D
:1010400094010E946909F22FD32ECA01015011099F
:101050006A3014F4E0E301C0E7E3E60FD801EC9353
:10106000232B242B252B49F7B801C7010E94C60763
:10107000A1960FB6F894DEBF0FBECDBFDF91CF9122
:101080001F910F91FF90EF90DF90BF90AF909F90D6
:101090008F900895CF92DF92EF92FF920F931F935C
:1010A000CF93DF93EC016A017B012115310579F4BF
:1010B000E881F9810190F081E02D642FDF91CF91DB
:1010C0001F910F91FF90EF90DF90CF9009942A30FD
:1010D0003105E9F477FF1AC06DE20E94DE078C014A
:1010E00044275527BA014C195D096E097F092AE08A
:1010F000CE010E94FB07800F911FDF91CF911F91BE
:101100000F91FF90EF90DF90CF9008952AE0B70104
:10111000A601CE01DF91CF911F910F91FF90EF902B
:10112000DF90CF900C94FB079A01AB01662757FD27
:101130006095762F0C944A082115310541F4DC01A5
:10114000ED91FC910190F081E02D642F09940C94B5
:10115000FB070F931F93CF93DF93EC019A01AB0131
:1011600060E070E00E949C088C01CE010E94E507BF
:10117000800F911FDF91CF911F910F9108950E94D1
:10118000910908950E94E1040E94C1080E948D0007
:10119000C1EED5E00E949C002097E1F30E94E1059A
:1011A000F9CF089504D06894B1118DC0089570D01E
:1011B00088F09F5790F0B92F9927B751A0F0D1F040
:1011C000660F771F881F991F1AF0BA95C9F712C0CA
:1011D000B13081F077D0B1E0089574C0672F782FD7
:1011E0008827B85F39F0B93FCCF386957795679536
:1011F000B395D9F73EF490958095709561957F4FA2
:101200008F4F9F4F0895E89409C097FB3EF4909547
:101210008095709561957F4F8F4F9F4F9923A9F0CF
:10122000F92F96E9BB279395F6958795779567955E
:10123000B795F111F8CFFAF4BB0F11F460FF1BC0A2
:101240006F5F7F4F8F4F9F4F16C0882311F096E935
:1012500011C0772321F09EE8872F762F05C06623E3
:1012600071F096E8862F70E060E02AF09A95660F9C
:10127000771F881FDAF7880F9695879597F9089555
:1012800057FD9058440F551F59F05F3F71F0479537
:10129000880F97FB991F61F09F3F79F0879508951C
:1012A000121613061406551FF2CF4695F1DF08C03B
:1012B000161617061806991FF1CF86957105610558
:1012C00008940895E894BB2766277727CB0197F900
:1012D0000895A1E21A2EAA1BBB1BFD010DC0AA1F77
:1012E000BB1FEE1FFF1FA217B307E407F50720F08F
:1012F000A21BB30BE40BF50B661F771F881F991F0A
:101300001A9469F760957095809590959B01AC0152
:10131000BD01CF010895EE0FFF1F0590F491E02D60
:10132000099481E090E0F8940C949609F894FFCF2A
:10133000020054656D706572617475726520616E2E
:10134000642048756D696469747920446174610032
:1013500052656164204448543131206661696C658E
:10136000642C206572723D002C0053616D706C65B9
:10137000204F4B3A2000202A432C20002048000018
:101380000000001201250113033001BF08BF0853FC
:10139000015701F4015B01BF086B0100000000125E
:1013A000012501130330016E03D10153015701F4EC
:1013B000015B015F026B010000000032069E07B472
:1013C00005CD05BF0510060D0A006E616E00696E41
:0813D00066006F7666002E0036
:00000001FF
